03300000         2166680760001200033038900490125866600389 0000130039521 SUMUP SOLUCOES DE PAGAMENTO BRSANTANDER                               20806201701521200133206000000                                                                     
03300011C2003031 2166680760001200033038900490125866600389 0000130039521 SUMUP SOLUCOES DE PAGAMENTO BR                                                                      00000                                   00000000                    
0330001300001A00001848700001 000001013888  SUMUP SOLUCOES DE PAGAMENTO BRPAYOUT8705          08062017BRL000000000000000000000200000000901489253           08062017000000200000000                                        07          000        
0330001300002B   216668076000120                              00000                                                  00000000  080620170000002000000000000000000000000000000000000000000000000000000000000000000000000                  62331228
0330001300003ZC2038E41E154E248018E141                                         PGTFORNI08062017901489253                                                                                                                               00        
0330001300004A00001870700001 000006958313  ACESSO SOLUCOES DE PAGAMENTO SACESSO8715          08062017BRL000000000000000000000010248588901489254           08062017000000010248588                                        01          000        
0330001300005B   213140088000199                              00000                                                  00000000  080620170000000102485880000000000000000000000000000000000000000000000000000000000000000                  62232889
0330001300006ZC2038E4A8D583DC2432DE04                                         PGTFORNI08062017901489254                                                                                                                               00                                                                                                                                                              