0001511222015185132000102PAYLEVEN TECNOLOGIA LTDA.               20105618000002017060109260600000        2                                                                                                  000000000000000                                                                                                                                                                                                                                                                                   000001
11117569773000072ELIAN MEZER DE SOUSA MAIA     BILL CARTAXO 461 CASA 10 SAPIRANGA      6083318523701379000000000475653 9682646         000000000000000               201706010000000000000000000000000122793000000000122793000000000000000000000000000000050000000000  0520170601   01HA        0000000                                                                             3                                        00                                   N                     00000 10035353        000002
11113670428000001NOIR VAGNO PINHEIRO DA SILVA  R CHARLES D AVILER 80 JD PALMAS         0574926023702403100000000031747 9679979         000000000000000               201706010000000000000000000000000003608000000000003608000000000000000000000000000000050000000000  0520170601   01HA        0000000                                                                             3                                        00                                   N                     00000 10035353        000003
11263949948000039ROBSON TERUEL SANTOS          R PIRATINING 486 BL1 AP44               0999002023702692100000000326763 9679832         000000000000000               201706010000000000000000000000000005851000000000005851000000000000000000000000000000050000000000  0520170601   01HA        0000000                                                                             3                                        00                                   N                     00000 10035353        000004
12014206006000124CARRASCOZA SERVICOS ESPECIALIZR LUIZ C CAMARGO 556 LOTEAM REMANSO C   1318442023702387600000000037990 9681220         000000000000000               201706010000000000000000000000000047034000000000047034000000000000000000000000000000050000000000  0520170601   01HA        0000000                                                                             3                                        00                                   N                     00000 10035353        000005
11277049388000043RICARDO GOUVEIA BALLEJA       R POTA 539 VL FORMOSA                   0335703723700898200000000010847 9682221         000000000000000               201706010000000000000000000000000000585000000000000585000000000000000000000000000000050000000000  0520170601   01HA        0000000                                                                             3                                        00                                   N                     00000 10035353        000006
