48700000         200000000000000                    00001 000001013888  SUMUP SOLUCÕES DE PAGAMENTO BRDBBRAZIL-OUVIDORIA-08007252113          21906201716562700167408200000                                                                     
48700011C2041042 200000000000000                    00001 000001013888  SUMUP SOLUCÕES DE PAGAMENTO BR                                                                      00000               BR                  00000             ZA        
4870001300001A00001810401532 00000000706601LEONARDO HENRIQUE DOS SANTOS  PAYOUT8783696       13062017BRL000000000000000000000004262838                    13062017000000004262838                                                    000        
4870001300002B   1   01438656688                              00000                                                  00000     00000000000000000000000000000000000000000000000000000000000000000000000000000000000                      00000000
4870001300003A00001874802602 00000000420310VINICIUS DANIELE              PAYOUT8783026       13062017BRL000000000000000000000001443524                    13062017000000001443524                                                    000        
4870001300004B   222806247000132                              00000                                                  00000     00000000000000000000000000000000000000000000000000000000000000000000000000000000000                      00000000
4870001300005A00001834101449 00000000189891JOANA DARC CABRAL DA SILVA    PAYOUT8784156       13062017BRL000000000000000000000001424544                    13062017000000001424544                                                    000        
4870001300006B   1   78984734420                              00000                                                  00000     00000000000000000000000000000000000000000000000000000000000000000000000000000000000                      00000000
4870001300007A00001823701194 00000000003522MARTIN ALEJANDRO MESA ALVAREZ PAYOUT8787806       13062017BRL000000000000000000000001242305                    13062017000000001242305                                                    000        
4870001300008B   211233489000168                              00000                                                  00000     00000000000000000000000000000000000000000000000000000000000000000000000000000000000                      00000000
4870001300009A00001823702194 00000000376256VALTER TAVARES                PAYOUT8791076       13062017BRL000000000000000000000001109225                    13062017000000001109225                                                    000                                                                                                                                                                                                                   